:100000000C9444000C9461000C9461000C94610009
:100010000C9461000C9461000C9461000C946100DC
:100020000C9461000C9461000C9461000C946100CC
:100030000C9461000C9461000C9461000C946100BC
:100040000C9461000C9461000C9461000C946100AC
:100050000C9461000C9461000C9461000C9461009C
:100060000C9461000C9461000C9461000C9461008C
:100070000C9461000C9461000C9461006364696EDF
:100080006F70737578585B0011241FBECFEFD8E0F6
:10009000DEBFCDBF11E0A0E0B1E0ECE9FBE002C0C3
:1000A00005900D92AC3FB107D9F722E0ACEFB1E07B
:1000B00001C01D92A230B207E1F70E943F010C94EB
:1000C000CC050C940000E0ECF0E080818823ECF794
:1000D0008091C60090E00895E0ECF0E0908195FFFB
:1000E000FDCF8093C60080E090E0089583E0809388
:1000F000C5008FE38093C40082E08093C0008EE04F
:100100008093C20088E18093C100ECEFF1E080E0D1
:1001100091E0918380839383828308956F927F928D
:100120008F929F92AF92BF92CF92DF92EF92FF9207
:100130000F931F93CF93DF9300D000D0CDB7DEB7DE
:100140001C821B82ECEFF1E0F080E1806280738022
:10015000CE0103969F938F9382E191E09F938F93BB
:10016000EF92FF920E94D1018B819C810E94C60177
:100170000E94C10168E873E10E944D018C014C01AD
:10018000930148E250E061E070E085E191E00E9477
:10019000E301930144E350E061E070E08EE391E01D
:1001A0000E94E3010F5F1F4F1A8309830F900F9086
:1001B0000F900F900F900F90CE0101965C0102E11D
:1001C00011E00F2EF3E7CF2EF1E0DF2EF02D3FC030
:1001D000DF92CF92EF92FF920E94D1010F900F9089
:1001E0000F900F90BF92AF921F930F93EF92FF92D9
:1001F0000E94D1010F900F900F900F900F900F90D1
:10020000019731F789819A818815990554F49301F2
:100210004AE250E061E070E087E791E00E94E3018C
:1002200016C08816990654F493014BE250E061E041
:1002300070E082EA91E00E94E30109C093014CE280
:1002400050E061E070E08EEC91E00E94E301898172
:100250009A818816990631F60F900F900F900F90A3
:10026000DF91CF911F910F91FF90EF90DF90CF9092
:10027000BF90AF909F908F907F906F9008950E9455
:1002800076002FEB87E299E0215080409040E1F723
:1002900000C000000E948E00FDCF97FB072E16F4D1
:1002A000009407D077FD09D00E94610107FC05D0BA
:1002B0003EF4909581959F4F0895709561957F4F7D
:1002C0000895AA1BBB1B51E107C0AA1FBB1FA6179D
:1002D000B70710F0A61BB70B881F991F5A95A9F7EF
:1002E00080959095BC01CD0108958F929F92AF9219
:1002F000BF92CF92DF92EF92FF92CF93DF93EC0108
:10030000688179818A819B816115710581059105DB
:1003100021F464E279ED8BE597E02DE133EF41E0E4
:1003200050E00E94320549015A019B01AC01A7EA45
:10033000B1E40E9451056B017C01ACEEB4EFA50164
:1003400094010E945F05DC01CB018C0D9D1DAE1D4B
:10035000BF1DB7FF03C00197A109B04888839983E7
:10036000AA83BB839F77DF91CF91FF90EF90DF90BF
:10037000CF90BF90AF909F908F9008950E9475018D
:1003800008958EE091E00E9475010895A0E0B0E02C
:1003900080930E0190930F01A0931001B09311016F
:1003A0000895A0E0B0E0E7EDF1E00C947405AE0133
:1003B000475F5F4F6F8178858D819E810E94B30377
:1003C000E2E00C949005A0E0B0E0E9EEF1E00C94DE
:1003D0006A055B014A017901D90113962C9121FF2D
:1003E0001DC0C0E0D0E0C815D905D9F08C016C0162
:1003F000CA0CDB1CC8010C151D0571F00F5F1F4FE7
:10040000D7011896ED91FC911997B701DC018C91F9
:100410000995892B79F305C02196E5CF80E090E01E
:1004200001C0CE01CDB7DEB7ECE00C94860520FD0F
:1004300009C0FC0123FD05C022FF02C07383628353
:1004400051834083089544FD17C046FD17C0AB019A
:10045000BC01DA01FB01AA0FBB1FEE1FFF1F1094A6
:10046000D1F74A0F5B1F6E1F7F1FCB01BA01660FCA
:10047000771F881F991F09C033E001C034E0660F61
:10048000771F881F991F3150D1F7620F711D811D91
:10049000911D08950F931F93CF93DF938C01C80193
:1004A0000E94D804EC0197FD08C00E94C404892B67
:1004B000B1F7B801CE010E941605CE01DF91CF91B0
:1004C0001F910F9108958F929F92AF92BF92EF92DA
:1004D000FF920F931F93CF93DF938C01D62F7A0156
:1004E000B22E0E94D8049C0133272B32310531F003
:1004F0002D32310561F48B2D8068B82ED15011F466
:1005000080E068C0C8010E94D80497FDF9CFCB2DC8
:10051000CD7F2B2D207309F58033F9F4AA24AA94FA
:10052000AD0E09F443C0C8010E94D80497FD3EC037
:100530009C012F7D33272835310549F4C264D25000
:10054000A9F1C8010E94D80497FF07C02FC0B6FECA
:1005500002C0C26001C0C261DA2D812C912C54010D
:1005600020ED280F283080F0C4FF04C0B8010E949D
:10057000160519C02A3040F0C6FFF8CF2F7D3FEE98
:10058000320F363098F727504C2FC501B4010E9426
:1005900023024B015C01C260D15059F0C8010E9496
:1005A000D80497FFDDCFC1FD04C0AACF812C912CC8
:1005B0005401C7FF08C0B094A09490948094811C0B
:1005C000911CA11CB11C2C2FB501A401C7010E94D4
:1005D000170281E0DF91CF911F910F91FF90EF9073
:1005E000BF90AF909F908F900895A0E2B0E0EBEFA6
:1005F000F2E00C9467055C01962E7A01F9018E01F8
:100600000F5F1F4F680180E2D8011D928A95E9F7BC
:10061000D50113968C9080E090E0612C712C30E035
:1006200061E070E083FC259183FE21918F01522EC1
:10063000211103C080E090E092C02E3511F40097A4
:1006400051F1432F50E0481759073CF42D3559F12B
:100650002D3219F4772009F103C0772009F46AC01C
:10066000452D469546954695D601A40FB11D452DBD
:1006700047708B0102C0000F111F4A95E2F7A801D5
:100680005C91452B4C93651459F0561410F4539417
:10069000E7CF5A94E5CF31E004C07724739401C0CA
:1006A000712C0196BFCF772019F08E8180628E83E6
:1006B000311103C08824839417C0F6019E012F5D79
:1006C0003F4F8081809581932E173F07D1F7F2CF5E
:1006D000E114F10429F0D7018C93F70131967F01E1
:1006E0009A94812C9920F9F0C5010E94D80497FDB5
:1006F00018C0FC01FF2723E0F595E7952A95E1F75F
:10070000EC0DFD1D208130E0AC014770552702C083
:10071000359527954A95E2F720FDDACFB5010E947D
:100720001605811087CFE114F10411F0D7011C9256
:10073000C80115C0422F469546954695D601A40F8F
:10074000B11D422F47708B0102C0000F111F4A9547
:10075000E2F7A8015C91452B4C93622EA2CFA096A4
:10076000EFE00C948305A0E0B0E0E9EBF3E00C943B
:1007700067056C01EB015A01FC0117821682512CAE
:10078000F601E380FE01E3FC8591E3FE8191182FE1
:10079000EF01882309F4EEC090E00E94C404892B85
:1007A00021F0C6010E944A02EBCF153241F4FE014E
:1007B000E3FC1591E3FE1191EF01153281F4C601BE
:1007C0000E94D80497FDD4C0412F50E09C013327EC
:1007D00024173507A9F2B6010E941605CBC01A32BC
:1007E00039F4E3FC1591E3FE1191EF0101E001C042
:1007F00000E0F12C20ED210F2A3080F402606F2DF3
:1008000070E080E090E040E20E942302F62EFE01BC
:10081000E3FC1591E3FE1191EF01ECCF01FF03C062
:10082000F11003C0A7C0FF24FA94183619F01C3643
:1008300051F010C0FE01E3FC1591E3FE1191EF01B0
:10084000183641F408600460FE01E3FC1591E3FEF4
:100850001191EF01112309F48DC0612F70E08CE735
:1008600090E00E94CD04892B09F484C000FD07C0EC
:10087000F50180809180C50102965C0102C0812C47
:10088000912C1E3651F4F6014681578160E070E0EC
:10089000202FC4010E94170273CF1336A9F401FD63
:1008A00002C0FF24F394C6010E94D80497FD60C0E3
:1008B0008114910429F0F4018083C40101964C0154
:1008C000FA94F110F0CF50C01B3559F49E01A401E9
:1008D0006F2DC6010E94F502EC01892B09F044C07E
:1008E0003EC0C6010E944A0297FD42C01F3661F118
:1008F00028F4143639F1193651F128C0133771F044
:10090000153701F123C08114910429F0F4016082AC
:10091000C40101964C01FA94FF2071F0C6010E94B7
:10092000D8043C0197FD08C00E94C404892B59F3E8
:10093000B601C3010E94160581149104A9F0F401C7
:10094000108212C0006203C0006101C00064202F49
:10095000A4016F2DC6010E946302811105C0F6013A
:100960008381807329F406C000FD0ACF539408CF19
:10097000552019F0852D90E002C08FEF9FEFCDB785
:10098000DEB7EFE00C94830591110C942F058032B3
:1009900019F089508550C8F70895FC010590061696
:1009A00021F00020D9F7C00108953197CF010895B3
:1009B000CF93DF93EC012B8120FF33C026FF0AC0C9
:1009C0002F7B2B838E819F8101969F838E838A81CB
:1009D00090E029C022FF0FC0E881F9818081082EB4
:1009E000000C990B009719F420622B831AC03196E2
:1009F000F983E8830EC0EA85FB85099597FF09C056
:100A00002B81019611F080E201C080E1822B8B8363
:100A100008C02E813F812F5F3F4F3F832E83992750
:100A200002C08FEF9FEFDF91CF910895FB012381EB
:100A300020FF12C026FD10C08F3F3FEF930761F0EB
:100A400082832F7D206423832681378121503109C1
:100A500037832683992708958FEF9FEF089599276D
:100A600088270895052E97FB1EF400940E944905DF
:100A700057FD07D00E949B0507FC03D04EF40C9451
:100A8000490550954095309521953F4F4F4F5F4F09
:100A9000089590958095709561957F4F8F4F9F4FEA
:100AA00008950E94BD05A59F900DB49F900DA49F31
:100AB000800D911D11240895B7FF0C9451050E94DB
:100AC0005105821B930B08952F923F924F925F9294
:100AD0006F927F928F929F92AF92BF92CF92DF924E
:100AE000EF92FF920F931F93CF93DF93CDB7DEB7B3
:100AF000CA1BDB0B0FB6F894DEBF0FBECDBF099447
:100B00002A88398848885F846E847D848C849B849D
:100B1000AA84B984C884DF80EE80FD800C811B81AB
:100B2000AA81B981CE0FD11D0FB6F894DEBF0FBEDA
:100B3000CDBFED010895A1E21A2EAA1BBB1BFD013A
:100B40000DC0AA1FBB1FEE1FFF1FA217B307E407AC
:100B5000F50720F0A21BB30BE40BF50B661F771F04
:100B6000881F991F1A9469F76095709580959095E4
:100B70009B01AC01BD01CF010895A29FB001B39FBD
:100B8000C001A39F700D811D1124911DB29F700D96
:0C0B9000811D1124911D0895F894FFCFE1
:100B9C0000000003000000006C0063000000010076
:100BAC00000025640057656C636F6D6520746F20C1
:100BBC0074686520686967682D6C6F772067756548
:100BCC007373696E672067616D65200D0A00456E51
:100BDC00746572206120706F736974697665207713
:100BEC00686F6C65206E756D6265722062657477D6
:100BFC0065656E203020616E6420352C30303020DD
:100C0C000D0A00252A7300596F757220677565737C
:100C1C00732077617320746F6F206C6F772E205068
:100C2C006C656173652074727920616761696E0D02
:100C3C000A00596F7572206775657373207761733D
:100C4C0020746F6F20686967682E20506C65617323
:100C5C00652074727920616761696E0D0A005249D2
:100C6C00474854204F4E2C20594F5520474F542065
:100C7C004954212057415920544F20534C4159205D
:0C0C8C0054484520444159210D0A000045
:00000001FF
