:100000000C943E000C9448000C9448000C9448005A
:100010000C9448000C9448000C9448000C94480040
:100020000C9448000C9448000C9448000C94480030
:100030000C9448000C9448000C9448000C94480020
:100040000C9448000C9448000C9448000C94480010
:100050000C9448000C9448000C9448000C94480000
:100060000C9448000C9448000C9448000C944800F0
:100070000C9448000C9448000C94480011241FBEB6
:10008000CFEFD8E0DEBFCDBF0E944A000C94BD0088
:100090000C940000CF93DF93CDB7DEB70E945300DE
:1000A0000E948C00FFCFCF93DF931F92CDB7DEB7B6
:1000B00081E090E00E94B50089838981882319F04E
:1000C0008981813021F58981882381F480E090E065
:1000D0000E94B500898386E690E026E630E0F901CB
:1000E00030812981230FFC01208311C080E090E042
:1000F0000E94B500898386E690E026E630E0F901AB
:1001000030812981F32FF21B2F2FFC012083000067
:100110000F90DF91CF910895CF93DF93CDB7DEB7E6
:100120008AE290E02AE230E0F90120812062FC01BD
:10013000208388E890E02FE13EE4FC0131832083B6
:1001400086E890E02FE33CE9FC013183208380E8DE
:1001500090E020E8FC01208381E890E021E1FC01AF
:1001600020830000DF91CF910895F999FECF92BDD1
:0E01700081BDF89A992780B50895F894FFCFC5
:00000001FF
